{
  "contractName": "SupplyChain",
  "abi": [
    {
      "inputs": [],
      "stateMutability": "payable",
      "type": "constructor"
    },
    {
      "anonymous": false,
      "inputs": [
        {
          "indexed": true,
          "internalType": "address",
          "name": "account",
          "type": "address"
        }
      ],
      "name": "ConsumerAdded",
      "type": "event"
    },
    {
      "anonymous": false,
      "inputs": [
        {
          "indexed": true,
          "internalType": "address",
          "name": "account",
          "type": "address"
        }
      ],
      "name": "ConsumerRemoved",
      "type": "event"
    },
    {
      "anonymous": false,
      "inputs": [
        {
          "indexed": true,
          "internalType": "address",
          "name": "account",
          "type": "address"
        }
      ],
      "name": "DistributorAdded",
      "type": "event"
    },
    {
      "anonymous": false,
      "inputs": [
        {
          "indexed": true,
          "internalType": "address",
          "name": "account",
          "type": "address"
        }
      ],
      "name": "DistributorRemoved",
      "type": "event"
    },
    {
      "anonymous": false,
      "inputs": [
        {
          "indexed": true,
          "internalType": "address",
          "name": "account",
          "type": "address"
        }
      ],
      "name": "FarmerAdded",
      "type": "event"
    },
    {
      "anonymous": false,
      "inputs": [
        {
          "indexed": true,
          "internalType": "address",
          "name": "account",
          "type": "address"
        }
      ],
      "name": "FarmerRemoved",
      "type": "event"
    },
    {
      "anonymous": false,
      "inputs": [
        {
          "indexed": false,
          "internalType": "uint256",
          "name": "upc",
          "type": "uint256"
        }
      ],
      "name": "ItemForSale",
      "type": "event"
    },
    {
      "anonymous": false,
      "inputs": [
        {
          "indexed": false,
          "internalType": "uint256",
          "name": "upc",
          "type": "uint256"
        }
      ],
      "name": "ItemHarvested",
      "type": "event"
    },
    {
      "anonymous": false,
      "inputs": [
        {
          "indexed": false,
          "internalType": "uint256",
          "name": "upc",
          "type": "uint256"
        }
      ],
      "name": "ItemPacked",
      "type": "event"
    },
    {
      "anonymous": false,
      "inputs": [
        {
          "indexed": false,
          "internalType": "uint256",
          "name": "upc",
          "type": "uint256"
        }
      ],
      "name": "ItemProcessed",
      "type": "event"
    },
    {
      "anonymous": false,
      "inputs": [
        {
          "indexed": false,
          "internalType": "uint256",
          "name": "upc",
          "type": "uint256"
        }
      ],
      "name": "ItemPurchased",
      "type": "event"
    },
    {
      "anonymous": false,
      "inputs": [
        {
          "indexed": false,
          "internalType": "uint256",
          "name": "upc",
          "type": "uint256"
        }
      ],
      "name": "ItemReceived",
      "type": "event"
    },
    {
      "anonymous": false,
      "inputs": [
        {
          "indexed": false,
          "internalType": "uint256",
          "name": "upc",
          "type": "uint256"
        }
      ],
      "name": "ItemShipped",
      "type": "event"
    },
    {
      "anonymous": false,
      "inputs": [
        {
          "indexed": false,
          "internalType": "uint256",
          "name": "upc",
          "type": "uint256"
        }
      ],
      "name": "ItemSold",
      "type": "event"
    },
    {
      "anonymous": false,
      "inputs": [
        {
          "indexed": true,
          "internalType": "address",
          "name": "account",
          "type": "address"
        }
      ],
      "name": "RetailerAdded",
      "type": "event"
    },
    {
      "anonymous": false,
      "inputs": [
        {
          "indexed": true,
          "internalType": "address",
          "name": "account",
          "type": "address"
        }
      ],
      "name": "RetailerRemoved",
      "type": "event"
    },
    {
      "anonymous": false,
      "inputs": [
        {
          "indexed": false,
          "internalType": "address",
          "name": "seller",
          "type": "address"
        }
      ],
      "name": "TomW_ADDED_PaymentSent",
      "type": "event"
    },
    {
      "anonymous": false,
      "inputs": [
        {
          "indexed": false,
          "internalType": "address",
          "name": "purchaser",
          "type": "address"
        }
      ],
      "name": "TomW_ADDED_RefundSent",
      "type": "event"
    },
    {
      "anonymous": false,
      "inputs": [
        {
          "indexed": true,
          "internalType": "address",
          "name": "oldOwner",
          "type": "address"
        },
        {
          "indexed": true,
          "internalType": "address",
          "name": "newOwner",
          "type": "address"
        }
      ],
      "name": "TransferOwnership",
      "type": "event"
    },
    {
      "inputs": [
        {
          "internalType": "address",
          "name": "account",
          "type": "address"
        }
      ],
      "name": "addConsumer",
      "outputs": [],
      "stateMutability": "nonpayable",
      "type": "function"
    },
    {
      "inputs": [
        {
          "internalType": "address",
          "name": "account",
          "type": "address"
        }
      ],
      "name": "addDistributor",
      "outputs": [],
      "stateMutability": "nonpayable",
      "type": "function"
    },
    {
      "inputs": [
        {
          "internalType": "address",
          "name": "account",
          "type": "address"
        }
      ],
      "name": "addFarmer",
      "outputs": [],
      "stateMutability": "nonpayable",
      "type": "function"
    },
    {
      "inputs": [
        {
          "internalType": "address",
          "name": "account",
          "type": "address"
        }
      ],
      "name": "addRetailer",
      "outputs": [],
      "stateMutability": "nonpayable",
      "type": "function"
    },
    {
      "inputs": [
        {
          "internalType": "address",
          "name": "account",
          "type": "address"
        }
      ],
      "name": "isConsumer",
      "outputs": [
        {
          "internalType": "bool",
          "name": "",
          "type": "bool"
        }
      ],
      "stateMutability": "view",
      "type": "function"
    },
    {
      "inputs": [
        {
          "internalType": "address",
          "name": "account",
          "type": "address"
        }
      ],
      "name": "isDistributor",
      "outputs": [
        {
          "internalType": "bool",
          "name": "",
          "type": "bool"
        }
      ],
      "stateMutability": "view",
      "type": "function"
    },
    {
      "inputs": [
        {
          "internalType": "address",
          "name": "account",
          "type": "address"
        }
      ],
      "name": "isFarmer",
      "outputs": [
        {
          "internalType": "bool",
          "name": "",
          "type": "bool"
        }
      ],
      "stateMutability": "view",
      "type": "function"
    },
    {
      "inputs": [],
      "name": "isOwner",
      "outputs": [
        {
          "internalType": "bool",
          "name": "",
          "type": "bool"
        }
      ],
      "stateMutability": "view",
      "type": "function"
    },
    {
      "inputs": [
        {
          "internalType": "address",
          "name": "account",
          "type": "address"
        }
      ],
      "name": "isRetailer",
      "outputs": [
        {
          "internalType": "bool",
          "name": "",
          "type": "bool"
        }
      ],
      "stateMutability": "view",
      "type": "function"
    },
    {
      "inputs": [],
      "name": "owner",
      "outputs": [
        {
          "internalType": "address",
          "name": "",
          "type": "address"
        }
      ],
      "stateMutability": "view",
      "type": "function"
    },
    {
      "inputs": [],
      "name": "renounceConsumer",
      "outputs": [],
      "stateMutability": "nonpayable",
      "type": "function"
    },
    {
      "inputs": [],
      "name": "renounceDistributor",
      "outputs": [],
      "stateMutability": "nonpayable",
      "type": "function"
    },
    {
      "inputs": [],
      "name": "renounceFarmer",
      "outputs": [],
      "stateMutability": "nonpayable",
      "type": "function"
    },
    {
      "inputs": [],
      "name": "renounceOwnership",
      "outputs": [],
      "stateMutability": "nonpayable",
      "type": "function"
    },
    {
      "inputs": [],
      "name": "renounceRetailer",
      "outputs": [],
      "stateMutability": "nonpayable",
      "type": "function"
    },
    {
      "inputs": [
        {
          "internalType": "address",
          "name": "newOwner",
          "type": "address"
        }
      ],
      "name": "transferOwnership",
      "outputs": [],
      "stateMutability": "nonpayable",
      "type": "function"
    },
    {
      "inputs": [],
      "name": "kill",
      "outputs": [],
      "stateMutability": "nonpayable",
      "type": "function"
    },
    {
      "inputs": [],
      "name": "getUPCs",
      "outputs": [
        {
          "internalType": "string[]",
          "name": "",
          "type": "string[]"
        }
      ],
      "stateMutability": "view",
      "type": "function"
    },
    {
      "inputs": [
        {
          "internalType": "uint256",
          "name": "_upc",
          "type": "uint256"
        },
        {
          "internalType": "address",
          "name": "_originFarmerID",
          "type": "address"
        },
        {
          "internalType": "string",
          "name": "_originFarmName",
          "type": "string"
        },
        {
          "internalType": "string",
          "name": "_originFarmInformation",
          "type": "string"
        },
        {
          "internalType": "string",
          "name": "_originFarmLatitude",
          "type": "string"
        },
        {
          "internalType": "string",
          "name": "_originFarmLongitude",
          "type": "string"
        },
        {
          "internalType": "string",
          "name": "_productNotes",
          "type": "string"
        },
        {
          "internalType": "uint256",
          "name": "_productID",
          "type": "uint256"
        }
      ],
      "name": "harvestItem",
      "outputs": [],
      "stateMutability": "nonpayable",
      "type": "function"
    },
    {
      "inputs": [
        {
          "internalType": "uint256",
          "name": "_upc",
          "type": "uint256"
        }
      ],
      "name": "processItem",
      "outputs": [],
      "stateMutability": "nonpayable",
      "type": "function"
    },
    {
      "inputs": [
        {
          "internalType": "uint256",
          "name": "_upc",
          "type": "uint256"
        }
      ],
      "name": "packItem",
      "outputs": [],
      "stateMutability": "nonpayable",
      "type": "function"
    },
    {
      "inputs": [
        {
          "internalType": "uint256",
          "name": "_upc",
          "type": "uint256"
        },
        {
          "internalType": "uint256",
          "name": "_price",
          "type": "uint256"
        }
      ],
      "name": "sellItem",
      "outputs": [],
      "stateMutability": "nonpayable",
      "type": "function"
    },
    {
      "inputs": [
        {
          "internalType": "uint256",
          "name": "_upc",
          "type": "uint256"
        }
      ],
      "name": "buyItem",
      "outputs": [],
      "stateMutability": "payable",
      "type": "function"
    },
    {
      "inputs": [
        {
          "internalType": "uint256",
          "name": "_upc",
          "type": "uint256"
        }
      ],
      "name": "shipItem",
      "outputs": [],
      "stateMutability": "nonpayable",
      "type": "function"
    },
    {
      "inputs": [
        {
          "internalType": "uint256",
          "name": "_upc",
          "type": "uint256"
        }
      ],
      "name": "receiveItem",
      "outputs": [],
      "stateMutability": "nonpayable",
      "type": "function"
    },
    {
      "inputs": [
        {
          "internalType": "uint256",
          "name": "_upc",
          "type": "uint256"
        }
      ],
      "name": "purchaseItem",
      "outputs": [],
      "stateMutability": "nonpayable",
      "type": "function"
    },
    {
      "inputs": [
        {
          "internalType": "uint256",
          "name": "_upc",
          "type": "uint256"
        }
      ],
      "name": "fetchItemBufferOne",
      "outputs": [
        {
          "internalType": "uint256",
          "name": "itemSKU",
          "type": "uint256"
        },
        {
          "internalType": "uint256",
          "name": "itemUPC",
          "type": "uint256"
        },
        {
          "internalType": "address",
          "name": "ownerID",
          "type": "address"
        },
        {
          "internalType": "address",
          "name": "originFarmerID",
          "type": "address"
        },
        {
          "internalType": "string",
          "name": "originFarmName",
          "type": "string"
        },
        {
          "internalType": "string",
          "name": "originFarmInformation",
          "type": "string"
        },
        {
          "internalType": "string",
          "name": "originFarmLatitude",
          "type": "string"
        },
        {
          "internalType": "string",
          "name": "originFarmLongitude",
          "type": "string"
        }
      ],
      "stateMutability": "view",
      "type": "function"
    },
    {
      "inputs": [
        {
          "internalType": "uint256",
          "name": "_upc",
          "type": "uint256"
        }
      ],
      "name": "fetchItemBufferTwo",
      "outputs": [
        {
          "internalType": "uint256",
          "name": "itemSKU",
          "type": "uint256"
        },
        {
          "internalType": "uint256",
          "name": "itemUPC",
          "type": "uint256"
        },
        {
          "internalType": "uint256",
          "name": "productID",
          "type": "uint256"
        },
        {
          "internalType": "string",
          "name": "productNotes",
          "type": "string"
        },
        {
          "internalType": "uint256",
          "name": "productPrice",
          "type": "uint256"
        },
        {
          "internalType": "uint256",
          "name": "itemState",
          "type": "uint256"
        },
        {
          "internalType": "address",
          "name": "distributorID",
          "type": "address"
        },
        {
          "internalType": "address",
          "name": "retailerID",
          "type": "address"
        },
        {
          "internalType": "address",
          "name": "consumerID",
          "type": "address"
        }
      ],
      "stateMutability": "view",
      "type": "function"
    }
  ],
  "bytecode": "0x6080604052336000806101000a81548173ffffffffffffffffffffffffffffffffffffffff021916908373ffffffffffffffffffffffffffffffffffffffff16021790555060008054906101000a900473ffffffffffffffffffffffffffffffffffffffff1673ffffffffffffffffffffffffffffffffffffffff16600073ffffffffffffffffffffffffffffffffffffffff167f5c486528ec3e3f0ea91181cff8116f02bfa350e03b8b6f12e00765adbb5af85c60405160405180910390a3620000d0336200011960201b60201c565b620000e1336200017a60201b60201c565b620000f233620001db60201b60201c565b62000103336200023c60201b60201c565b60016006819055506001600581905550620003e3565b620001348160016200029a60201b620020511790919060201c565b8073ffffffffffffffffffffffffffffffffffffffff167f2e0ded4123377a3c2bc9a26f1717655a129e2f20752924d42e730ec89c83dbd060405160405180910390a250565b620001958160026200029a60201b620020511790919060201c565b8073ffffffffffffffffffffffffffffffffffffffff167fddbf200aa634dc3fb81cfd68583dd1040d1c751d335e1d86b631bde3e977fea860405160405180910390a250565b620001f68160036200029a60201b620020511790919060201c565b8073ffffffffffffffffffffffffffffffffffffffff167f71ae26cad02663e3d92efd6ec56031a80d74a20c0ab4183faa8bf262261c9baa60405160405180910390a250565b620002546004826200029a60201b620020511760201c565b8073ffffffffffffffffffffffffffffffffffffffff167f28b26e7a3d20aedbc5f8f2ebf7da671c0491723a2b78f47a097b0e46dee0714260405160405180910390a250565b600073ffffffffffffffffffffffffffffffffffffffff168173ffffffffffffffffffffffffffffffffffffffff161415620002d557600080fd5b620002e782826200035060201b60201c565b15620002f257600080fd5b60018260000160008373ffffffffffffffffffffffffffffffffffffffff1673ffffffffffffffffffffffffffffffffffffffff16815260200190815260200160002060006101000a81548160ff0219169083151502179055505050565b60008073ffffffffffffffffffffffffffffffffffffffff168273ffffffffffffffffffffffffffffffffffffffff1614156200038c57600080fd5b8260000160008373ffffffffffffffffffffffffffffffffffffffff1673ffffffffffffffffffffffffffffffffffffffff16815260200190815260200160002060009054906101000a900460ff16905092915050565b612f4980620003f36000396000f3fe6080604052600436106101b75760003560e01c8063834ff739116100ec578063b94290691161008a578063e7fb74c711610064578063e7fb74c7146105b5578063f2fde38b146105d1578063f30fc480146105fa578063f61c899a14610623576101b7565b8063b942906914610538578063d38ea5bf14610575578063db0e6a2f1461059e576101b7565b80638f0c86fa116100c65780638f0c86fa1461047e5780638f32d59b146104bb57806392c73742146104e6578063a26be9991461050f576101b7565b8063834ff739146103ed5780638da5cb5b1461042a5780638ec4f50514610455576101b7565b8063644241db116101595780637250e224116101335780637250e2241461034057806377c459131461036957806380c3f96d146103ad57806380fc0ce4146103d6576101b7565b8063644241db146102cd57806366225ff9146102e4578063715018a614610329576101b7565b806341c0e1b51161019557806341c0e1b51461023957806349dae766146102505780635da09b881461027957806361e6982d146102b6576101b7565b80630253a36a146101bc578063112940f9146101e75780632d92356114610210575b600080fd5b3480156101c857600080fd5b506101d161064c565b6040516101de91906127ed565b60405180910390f35b3480156101f357600080fd5b5061020e60048036038101906102099190612881565b610651565b005b34801561021c57600080fd5b50610237600480360381019061023291906128e4565b61066f565b005b34801561024557600080fd5b5061024e61076c565b005b34801561025c57600080fd5b5061027760048036038101906102729190612924565b6107c9565b005b34801561028557600080fd5b506102a0600480360381019061029b9190612881565b6108aa565b6040516102ad919061296c565b60405180910390f35b3480156102c257600080fd5b506102cb6108c7565b005b3480156102d957600080fd5b506102e26108d2565b005b3480156102f057600080fd5b5061030b60048036038101906103069190612924565b6108dd565b604051610320999897969594939291906129ef565b60405180910390f35b34801561033557600080fd5b5061033e610e5f565b005b34801561034c57600080fd5b5061036760048036038101906103629190612881565b610f2e565b005b34801561037557600080fd5b50610390600480360381019061038b9190612924565b610f4c565b6040516103a4989796959493929190612a83565b60405180910390f35b3480156103b957600080fd5b506103d460048036038101906103cf9190612881565b6114aa565b005b3480156103e257600080fd5b506103eb6114c8565b005b3480156103f957600080fd5b50610414600480360381019061040f9190612881565b6114d3565b604051610421919061296c565b60405180910390f35b34801561043657600080fd5b5061043f6114f0565b60405161044c9190612b1d565b60405180910390f35b34801561046157600080fd5b5061047c60048036038101906104779190612881565b611519565b005b34801561048a57600080fd5b506104a560048036038101906104a09190612881565b611537565b6040516104b2919061296c565b60405180910390f35b3480156104c757600080fd5b506104d0611554565b6040516104dd919061296c565b60405180910390f35b3480156104f257600080fd5b5061050d60048036038101906105089190612c6d565b6115ab565b005b34801561051b57600080fd5b5061053660048036038101906105319190612924565b61182a565b005b34801561054457600080fd5b5061055f600480360381019061055a9190612881565b6119b5565b60405161056c919061296c565b60405180910390f35b34801561058157600080fd5b5061059c60048036038101906105979190612924565b6119d2565b005b3480156105aa57600080fd5b506105b3611b5c565b005b6105cf60048036038101906105ca9190612924565b611b67565b005b3480156105dd57600080fd5b506105f860048036038101906105f39190612881565b611e72565b005b34801561060657600080fd5b50610621600480360381019061061c9190612924565b611e8f565b005b34801561062f57600080fd5b5061064a60048036038101906106459190612924565b611f70565b005b606090565b61065a336114d3565b61066357600080fd5b61066c816120fd565b50565b816002600781111561068457610683612daf565b5b60076000838152602001908152602001600020600b0160009054906101000a900460ff1660078111156106ba576106b9612daf565b5b146106c457600080fd5b6106cd336119b5565b6106d657600080fd5b600360076000858152602001908152602001600020600b0160006101000a81548160ff021916908360078111156107105761070f612daf565b5b02179055508160076000858152602001908152602001600020600a01819055507fbe24c45ae28c5a4725c239645e85a171ecd9be7dbf73fac19f4dee2fe009e2a58360405161075f9190612dde565b60405180910390a1505050565b6107746114f0565b73ffffffffffffffffffffffffffffffffffffffff163373ffffffffffffffffffffffffffffffffffffffff1614156107c7576107af6114f0565b73ffffffffffffffffffffffffffffffffffffffff16ff5b565b80600060078111156107de576107dd612daf565b5b60076000838152602001908152602001600020600b0160009054906101000a900460ff16600781111561081457610813612daf565b5b1461081e57600080fd5b610827336119b5565b61083057600080fd5b600160076000848152602001908152602001600020600b0160006101000a81548160ff0219169083600781111561086a57610869612daf565b5b02179055507f195f756ab42f6379a9ba9a8a6913be6ff393b57952f391121efe6983ca67e5558260405161089e9190612dde565b60405180910390a15050565b60006108c082600361214e90919063ffffffff16565b9050919050565b6108d0336121e0565b565b6108db33612231565b565b60008060006060600080600080600080600760008c8152602001908152602001600020604051806101e001604052908160008201548152602001600182015481526020016002820160009054906101000a900473ffffffffffffffffffffffffffffffffffffffff1673ffffffffffffffffffffffffffffffffffffffff1673ffffffffffffffffffffffffffffffffffffffff1681526020016003820160009054906101000a900473ffffffffffffffffffffffffffffffffffffffff1673ffffffffffffffffffffffffffffffffffffffff1673ffffffffffffffffffffffffffffffffffffffff1681526020016004820180546109dc90612e28565b80601f0160208091040260200160405190810160405280929190818152602001828054610a0890612e28565b8015610a555780601f10610a2a57610100808354040283529160200191610a55565b820191906000526020600020905b815481529060010190602001808311610a3857829003601f168201915b50505050508152602001600582018054610a6e90612e28565b80601f0160208091040260200160405190810160405280929190818152602001828054610a9a90612e28565b8015610ae75780601f10610abc57610100808354040283529160200191610ae7565b820191906000526020600020905b815481529060010190602001808311610aca57829003601f168201915b50505050508152602001600682018054610b0090612e28565b80601f0160208091040260200160405190810160405280929190818152602001828054610b2c90612e28565b8015610b795780601f10610b4e57610100808354040283529160200191610b79565b820191906000526020600020905b815481529060010190602001808311610b5c57829003601f168201915b50505050508152602001600782018054610b9290612e28565b80601f0160208091040260200160405190810160405280929190818152602001828054610bbe90612e28565b8015610c0b5780601f10610be057610100808354040283529160200191610c0b565b820191906000526020600020905b815481529060010190602001808311610bee57829003601f168201915b5050505050815260200160088201548152602001600982018054610c2e90612e28565b80601f0160208091040260200160405190810160405280929190818152602001828054610c5a90612e28565b8015610ca75780601f10610c7c57610100808354040283529160200191610ca7565b820191906000526020600020905b815481529060010190602001808311610c8a57829003601f168201915b50505050508152602001600a8201548152602001600b820160009054906101000a900460ff166007811115610cdf57610cde612daf565b5b6007811115610cf157610cf0612daf565b5b8152602001600b820160019054906101000a900473ffffffffffffffffffffffffffffffffffffffff1673ffffffffffffffffffffffffffffffffffffffff1673ffffffffffffffffffffffffffffffffffffffff168152602001600c820160009054906101000a900473ffffffffffffffffffffffffffffffffffffffff1673ffffffffffffffffffffffffffffffffffffffff1673ffffffffffffffffffffffffffffffffffffffff168152602001600d820160009054906101000a900473ffffffffffffffffffffffffffffffffffffffff1673ffffffffffffffffffffffffffffffffffffffff1673ffffffffffffffffffffffffffffffffffffffff16815250509050806000015181602001518261010001518361012001518461014001518561016001516007811115610e2d57610e2c612daf565b5b866101800151876101a00151886101c00151995099509950995099509950995099509950509193959799909294969850565b610e67611554565b610e7057600080fd5b600073ffffffffffffffffffffffffffffffffffffffff1660008054906101000a900473ffffffffffffffffffffffffffffffffffffffff1673ffffffffffffffffffffffffffffffffffffffff167f5c486528ec3e3f0ea91181cff8116f02bfa350e03b8b6f12e00765adbb5af85c60405160405180910390a360008060006101000a81548173ffffffffffffffffffffffffffffffffffffffff021916908373ffffffffffffffffffffffffffffffffffffffff160217905550565b610f3733611537565b610f4057600080fd5b610f498161228b565b50565b6000806000806060806060806000600760008b8152602001908152602001600020604051806101e001604052908160008201548152602001600182015481526020016002820160009054906101000a900473ffffffffffffffffffffffffffffffffffffffff1673ffffffffffffffffffffffffffffffffffffffff1673ffffffffffffffffffffffffffffffffffffffff1681526020016003820160009054906101000a900473ffffffffffffffffffffffffffffffffffffffff1673ffffffffffffffffffffffffffffffffffffffff1673ffffffffffffffffffffffffffffffffffffffff16815260200160048201805461104990612e28565b80601f016020809104026020016040519081016040528092919081815260200182805461107590612e28565b80156110c25780601f10611097576101008083540402835291602001916110c2565b820191906000526020600020905b8154815290600101906020018083116110a557829003601f168201915b505050505081526020016005820180546110db90612e28565b80601f016020809104026020016040519081016040528092919081815260200182805461110790612e28565b80156111545780601f1061112957610100808354040283529160200191611154565b820191906000526020600020905b81548152906001019060200180831161113757829003601f168201915b5050505050815260200160068201805461116d90612e28565b80601f016020809104026020016040519081016040528092919081815260200182805461119990612e28565b80156111e65780601f106111bb576101008083540402835291602001916111e6565b820191906000526020600020905b8154815290600101906020018083116111c957829003601f168201915b505050505081526020016007820180546111ff90612e28565b80601f016020809104026020016040519081016040528092919081815260200182805461122b90612e28565b80156112785780601f1061124d57610100808354040283529160200191611278565b820191906000526020600020905b81548152906001019060200180831161125b57829003601f168201915b505050505081526020016008820154815260200160098201805461129b90612e28565b80601f01602080910402602001604051908101604052809291908181526020018280546112c790612e28565b80156113145780601f106112e957610100808354040283529160200191611314565b820191906000526020600020905b8154815290600101906020018083116112f757829003601f168201915b50505050508152602001600a8201548152602001600b820160009054906101000a900460ff16600781111561134c5761134b612daf565b5b600781111561135e5761135d612daf565b5b8152602001600b820160019054906101000a900473ffffffffffffffffffffffffffffffffffffffff1673ffffffffffffffffffffffffffffffffffffffff1673ffffffffffffffffffffffffffffffffffffffff168152602001600c820160009054906101000a900473ffffffffffffffffffffffffffffffffffffffff1673ffffffffffffffffffffffffffffffffffffffff1673ffffffffffffffffffffffffffffffffffffffff168152602001600d820160009054906101000a900473ffffffffffffffffffffffffffffffffffffffff1673ffffffffffffffffffffffffffffffffffffffff1673ffffffffffffffffffffffffffffffffffffffff16815250509050806000015181602001518260400151836060015184608001518560a001518660c001518760e001519850985098509850985098509850985050919395975091939597565b6114b3336119b5565b6114bc57600080fd5b6114c5816122e5565b50565b6114d13361233f565b565b60006114e982600461214e90919063ffffffff16565b9050919050565b60008060009054906101000a900473ffffffffffffffffffffffffffffffffffffffff16905090565b611522336108aa565b61152b57600080fd5b61153481612399565b50565b600061154d82600261214e90919063ffffffff16565b9050919050565b60008060009054906101000a900473ffffffffffffffffffffffffffffffffffffffff1673ffffffffffffffffffffffffffffffffffffffff163373ffffffffffffffffffffffffffffffffffffffff1614905090565b87600760008a815260200190815260200160002060010181905550600654600760008a81526020019081526020016000206000018190555080600760008a81526020019081526020016000206008018190555086600760008a815260200190815260200160002060020160006101000a81548173ffffffffffffffffffffffffffffffffffffffff021916908373ffffffffffffffffffffffffffffffffffffffff16021790555086600760008a815260200190815260200160002060030160006101000a81548173ffffffffffffffffffffffffffffffffffffffff021916908373ffffffffffffffffffffffffffffffffffffffff16021790555085600760008a815260200190815260200160002060040190805190602001906116d29291906125ef565b5084600760008a815260200190815260200160002060050190805190602001906116fd9291906125ef565b5083600760008a815260200190815260200160002060060190805190602001906117289291906125ef565b5082600760008a815260200190815260200160002060070190805190602001906117539291906125ef565b5081600760008a8152602001908152602001600020600901908051906020019061177e9291906125ef565b506000600760008a8152602001908152602001600020600b0160006101000a81548160ff021916908360078111156117b9576117b8612daf565b5b021790555060016006546117cd9190612e89565b6006819055507f58b77143384b0bb6b681b48572b01e39c21324fde1fb31c5f97c4dade59a5c0a600760008a8152602001908152602001600020600101546040516118189190612dde565b60405180910390a15050505050505050565b806005600781111561183f5761183e612daf565b5b60076000838152602001908152602001600020600b0160009054906101000a900460ff16600781111561187557611874612daf565b5b1461187f57600080fd5b611888336108aa565b61189157600080fd5b336007600084815260200190815260200160002060020160006101000a81548173ffffffffffffffffffffffffffffffffffffffff021916908373ffffffffffffffffffffffffffffffffffffffff1602179055503360076000848152602001908152602001600020600c0160006101000a81548173ffffffffffffffffffffffffffffffffffffffff021916908373ffffffffffffffffffffffffffffffffffffffff160217905550600660076000848152602001908152602001600020600b0160006101000a81548160ff0219169083600781111561197557611974612daf565b5b02179055507f01e74d1f4f418e68629246efc4a29d98199e9c9b9c3653bdbfee74d2ad4ac6a3826040516119a99190612dde565b60405180910390a15050565b60006119cb82600161214e90919063ffffffff16565b9050919050565b80600660078111156119e7576119e6612daf565b5b60076000838152602001908152602001600020600b0160009054906101000a900460ff166007811115611a1d57611a1c612daf565b5b14611a2757600080fd5b611a30336114d3565b611a3957600080fd5b336007600084815260200190815260200160002060020160006101000a81548173ffffffffffffffffffffffffffffffffffffffff021916908373ffffffffffffffffffffffffffffffffffffffff1602179055503360076000848152602001908152602001600020600d0160006101000a81548173ffffffffffffffffffffffffffffffffffffffff021916908373ffffffffffffffffffffffffffffffffffffffff1602179055506007806000848152602001908152602001600020600b0160006101000a81548160ff02191690836007811115611b1c57611b1b612daf565b5b02179055507f60cfc64e6e09cb231bd51aed094f48f62faef49798b1f424dce8a94bdf9b036d82604051611b509190612dde565b60405180910390a15050565b611b65336123f3565b565b8060036007811115611b7c57611b7b612daf565b5b60076000838152602001908152602001600020600b0160009054906101000a900460ff166007811115611bb257611bb1612daf565b5b14611bbc57600080fd5b8180341015611bca57600080fd5b8260006007600086815260200190815260200160002060020160009054906101000a900473ffffffffffffffffffffffffffffffffffffffff169050336007600087815260200190815260200160002060020160006101000a81548173ffffffffffffffffffffffffffffffffffffffff021916908373ffffffffffffffffffffffffffffffffffffffff1602179055503360076000878152602001908152602001600020600b0160016101000a81548173ffffffffffffffffffffffffffffffffffffffff021916908373ffffffffffffffffffffffffffffffffffffffff160217905550600460076000878152602001908152602001600020600b0160006101000a81548160ff02191690836007811115611cea57611ce9612daf565b5b02179055508073ffffffffffffffffffffffffffffffffffffffff166108fc60076000888152602001908152602001600020600a01549081150290604051600060405180830381858888f19350505050158015611d4b573d6000803e3d6000fd5b507fadf6d10d44a697fd240c9a1ef648f41cd3fdb3d0381c241842dcd46b3dfbd04185604051611d7b9190612dde565b60405180910390a17fb145a9eef5e9837cd61deb7948472f427996f02374ee385c7ccc786c3685471281604051611db29190612b1d565b60405180910390a150600060076000838152602001908152602001600020600a0154905060008134611de49190612edf565b905060003390508073ffffffffffffffffffffffffffffffffffffffff166108fc839081150290604051600060405180830381858888f19350505050158015611e31573d6000803e3d6000fd5b507ffb79398bfe9c858a55ad2db349cc93a822b7b9f07f6a950d7f821da418312fdd81604051611e619190612b1d565b60405180910390a150505050505050565b611e7a611554565b611e8357600080fd5b611e8c8161244d565b50565b8060016007811115611ea457611ea3612daf565b5b60076000838152602001908152602001600020600b0160009054906101000a900460ff166007811115611eda57611ed9612daf565b5b14611ee457600080fd5b611eed336119b5565b611ef657600080fd5b600260076000848152602001908152602001600020600b0160006101000a81548160ff02191690836007811115611f3057611f2f612daf565b5b02179055507f4e535268f57d8a53face7e4f0244d268610f067da073aa8e3c4bf48aad962b6682604051611f649190612dde565b60405180910390a15050565b8060046007811115611f8557611f84612daf565b5b60076000838152602001908152602001600020600b0160009054906101000a900460ff166007811115611fbb57611fba612daf565b5b14611fc557600080fd5b611fce33611537565b611fd757600080fd5b600560076000848152602001908152602001600020600b0160006101000a81548160ff0219169083600781111561201157612010612daf565b5b02179055507fa05c5fef40b703b14a2e3737559bc365ed9169787e68b584f4966911a890d4e2826040516120459190612dde565b60405180910390a15050565b600073ffffffffffffffffffffffffffffffffffffffff168173ffffffffffffffffffffffffffffffffffffffff16141561208b57600080fd5b612095828261214e565b1561209f57600080fd5b60018260000160008373ffffffffffffffffffffffffffffffffffffffff1673ffffffffffffffffffffffffffffffffffffffff16815260200190815260200160002060006101000a81548160ff0219169083151502179055505050565b612108600482612051565b8073ffffffffffffffffffffffffffffffffffffffff167f28b26e7a3d20aedbc5f8f2ebf7da671c0491723a2b78f47a097b0e46dee0714260405160405180910390a250565b60008073ffffffffffffffffffffffffffffffffffffffff168273ffffffffffffffffffffffffffffffffffffffff16141561218957600080fd5b8260000160008373ffffffffffffffffffffffffffffffffffffffff1673ffffffffffffffffffffffffffffffffffffffff16815260200190815260200160002060009054906101000a900460ff16905092915050565b6121eb600482612544565b8073ffffffffffffffffffffffffffffffffffffffff167fe3f5ed5f263f1f01764a96edfc7d025f511ec5f7d180e8816908b78bcf74f09860405160405180910390a250565b61224581600261254490919063ffffffff16565b8073ffffffffffffffffffffffffffffffffffffffff167f126174f6cf49c81cdb4a9214c6b8f037bef55b4ec31e4fc776cea2a1c8a88d5960405160405180910390a250565b61229f81600261205190919063ffffffff16565b8073ffffffffffffffffffffffffffffffffffffffff167fddbf200aa634dc3fb81cfd68583dd1040d1c751d335e1d86b631bde3e977fea860405160405180910390a250565b6122f981600161205190919063ffffffff16565b8073ffffffffffffffffffffffffffffffffffffffff167f2e0ded4123377a3c2bc9a26f1717655a129e2f20752924d42e730ec89c83dbd060405160405180910390a250565b61235381600161254490919063ffffffff16565b8073ffffffffffffffffffffffffffffffffffffffff167fa5e0f060af304ab17dd418c7927e3da3ae7868189bf387aee09ab179ccc572f260405160405180910390a250565b6123ad81600361205190919063ffffffff16565b8073ffffffffffffffffffffffffffffffffffffffff167f71ae26cad02663e3d92efd6ec56031a80d74a20c0ab4183faa8bf262261c9baa60405160405180910390a250565b61240781600361254490919063ffffffff16565b8073ffffffffffffffffffffffffffffffffffffffff167fdb7176e79cffef81cb01767dd0447a0b24bb72ca9778d4b245581086b2a7e6db60405160405180910390a250565b600073ffffffffffffffffffffffffffffffffffffffff168173ffffffffffffffffffffffffffffffffffffffff16141561248757600080fd5b8073ffffffffffffffffffffffffffffffffffffffff1660008054906101000a900473ffffffffffffffffffffffffffffffffffffffff1673ffffffffffffffffffffffffffffffffffffffff167f5c486528ec3e3f0ea91181cff8116f02bfa350e03b8b6f12e00765adbb5af85c60405160405180910390a3806000806101000a81548173ffffffffffffffffffffffffffffffffffffffff021916908373ffffffffffffffffffffffffffffffffffffffff16021790555050565b600073ffffffffffffffffffffffffffffffffffffffff168173ffffffffffffffffffffffffffffffffffffffff16141561257e57600080fd5b612588828261214e565b61259157600080fd5b60008260000160008373ffffffffffffffffffffffffffffffffffffffff1673ffffffffffffffffffffffffffffffffffffffff16815260200190815260200160002060006101000a81548160ff0219169083151502179055505050565b8280546125fb90612e28565b90600052602060002090601f01602090048101928261261d5760008555612664565b82601f1061263657805160ff1916838001178555612664565b82800160010185558215612664579182015b82811115612663578251825591602001919060010190612648565b5b5090506126719190612675565b5090565b5b8082111561268e576000816000905550600101612676565b5090565b600081519050919050565b600082825260208201905092915050565b6000819050602082019050919050565b600081519050919050565b600082825260208201905092915050565b60005b838110156126f85780820151818401526020810190506126dd565b83811115612707576000848401525b50505050565b6000601f19601f8301169050919050565b6000612729826126be565b61273381856126c9565b93506127438185602086016126da565b61274c8161270d565b840191505092915050565b6000612763838361271e565b905092915050565b6000602082019050919050565b600061278382612692565b61278d818561269d565b93508360208202850161279f856126ae565b8060005b858110156127db57848403895281516127bc8582612757565b94506127c78361276b565b925060208a019950506001810190506127a3565b50829750879550505050505092915050565b600060208201905081810360008301526128078184612778565b905092915050565b6000604051905090565b600080fd5b600080fd5b600073ffffffffffffffffffffffffffffffffffffffff82169050919050565b600061284e82612823565b9050919050565b61285e81612843565b811461286957600080fd5b50565b60008135905061287b81612855565b92915050565b60006020828403121561289757612896612819565b5b60006128a58482850161286c565b91505092915050565b6000819050919050565b6128c1816128ae565b81146128cc57600080fd5b50565b6000813590506128de816128b8565b92915050565b600080604083850312156128fb576128fa612819565b5b6000612909858286016128cf565b925050602061291a858286016128cf565b9150509250929050565b60006020828403121561293a57612939612819565b5b6000612948848285016128cf565b91505092915050565b60008115159050919050565b61296681612951565b82525050565b6000602082019050612981600083018461295d565b92915050565b612990816128ae565b82525050565b600082825260208201905092915050565b60006129b2826126be565b6129bc8185612996565b93506129cc8185602086016126da565b6129d58161270d565b840191505092915050565b6129e981612843565b82525050565b600061012082019050612a05600083018c612987565b612a12602083018b612987565b612a1f604083018a612987565b8181036060830152612a3181896129a7565b9050612a406080830188612987565b612a4d60a0830187612987565b612a5a60c08301866129e0565b612a6760e08301856129e0565b612a756101008301846129e0565b9a9950505050505050505050565b600061010082019050612a99600083018b612987565b612aa6602083018a612987565b612ab360408301896129e0565b612ac060608301886129e0565b8181036080830152612ad281876129a7565b905081810360a0830152612ae681866129a7565b905081810360c0830152612afa81856129a7565b905081810360e0830152612b0e81846129a7565b90509998505050505050505050565b6000602082019050612b3260008301846129e0565b92915050565b600080fd5b600080fd5b7f4e487b7100000000000000000000000000000000000000000000000000000000600052604160045260246000fd5b612b7a8261270d565b810181811067ffffffffffffffff82111715612b9957612b98612b42565b5b80604052505050565b6000612bac61280f565b9050612bb88282612b71565b919050565b600067ffffffffffffffff821115612bd857612bd7612b42565b5b612be18261270d565b9050602081019050919050565b82818337600083830152505050565b6000612c10612c0b84612bbd565b612ba2565b905082815260208101848484011115612c2c57612c2b612b3d565b5b612c37848285612bee565b509392505050565b600082601f830112612c5457612c53612b38565b5b8135612c64848260208601612bfd565b91505092915050565b600080600080600080600080610100898b031215612c8e57612c8d612819565b5b6000612c9c8b828c016128cf565b9850506020612cad8b828c0161286c565b975050604089013567ffffffffffffffff811115612cce57612ccd61281e565b5b612cda8b828c01612c3f565b965050606089013567ffffffffffffffff811115612cfb57612cfa61281e565b5b612d078b828c01612c3f565b955050608089013567ffffffffffffffff811115612d2857612d2761281e565b5b612d348b828c01612c3f565b94505060a089013567ffffffffffffffff811115612d5557612d5461281e565b5b612d618b828c01612c3f565b93505060c089013567ffffffffffffffff811115612d8257612d8161281e565b5b612d8e8b828c01612c3f565b92505060e0612d9f8b828c016128cf565b9150509295985092959890939650565b7f4e487b7100000000000000000000000000000000000000000000000000000000600052602160045260246000fd5b6000602082019050612df36000830184612987565b92915050565b7f4e487b7100000000000000000000000000000000000000000000000000000000600052602260045260246000fd5b60006002820490506001821680612e4057607f821691505b60208210811415612e5457612e53612df9565b5b50919050565b7f4e487b7100000000000000000000000000000000000000000000000000000000600052601160045260246000fd5b6000612e94826128ae565b9150612e9f836128ae565b9250827fffffffffffffffffffffffffffffffffffffffffffffffffffffffffffffffff03821115612ed457612ed3612e5a565b5b828201905092915050565b6000612eea826128ae565b9150612ef5836128ae565b925082821015612f0857612f07612e5a565b5b82820390509291505056fea264697066735822122026a47c5296fee76cabe8070b248a9387bb25584fc50062d1e6c7f23a21abbc2c64736f6c634300080b0033",
  "immutableReferences": {},
  "source": "// SPDX-License-Identifier: MIT\npragma solidity >=0.4.22 <0.9.0;\n\nimport \"../coffeeaccesscontrol/ConsumerRole.sol\";\nimport \"../coffeeaccesscontrol/DistributorRole.sol\";\nimport \"../coffeeaccesscontrol/FarmerRole.sol\";\nimport \"../coffeeaccesscontrol/RetailerRole.sol\";\nimport \"../coffeecore/Ownable.sol\";\n\n// Define a contract 'Supplychain'\ncontract SupplyChain is Ownable, FarmerRole, DistributorRole, RetailerRole, ConsumerRole {\n\n  // Define 8 events with the same 8 state values and accept 'upc' as input argument\n  event ItemHarvested(uint upc);\n  event ItemProcessed(uint upc);\n  event ItemPacked(uint upc);\n  event ItemForSale(uint upc);\n  event ItemSold(uint upc);\n  event ItemShipped(uint upc);\n  event ItemReceived(uint upc);\n  event ItemPurchased(uint upc);\n\n  // my own\n  event TomW_ADDED_RefundSent(address purchaser);\n  event TomW_ADDED_PaymentSent(address seller);\n\n  // Define a variable called 'upc' for Universal Product Code (UPC)\n  uint  upc;\n\n  // Define a variable called 'sku' for Stock Keeping Unit (SKU)\n  uint  sku;\n\n  // Define a public mapping 'items' that maps the UPC to an Item.\n  mapping (uint => Item) itemsByUPC;\n\n  // Define a public mapping 'itemsHistory' that maps the UPC to an array of TxHash,\n  // that track its journey through the supply chain -- to be sent from DApp.\n//  mapping (uint => string[]) itemsHistoryByUPC;\n  \n  // Define enum 'State' with the following values:\n  enum State\n  { \n    Harvested,  // 0\n    Processed,  // 1\n    Packed,     // 2\n    ForSale,    // 3\n    Sold,       // 4\n    Shipped,    // 5\n    Received,   // 6\n    Purchased   // 7\n    }\n\n  State constant defaultState = State.Harvested;\n\n  // Define a struct 'Item' with the following fields:\n  struct Item {\n    uint    sku;  // Stock Keeping Unit (SKU)\n    uint    upc; // Universal Product Code (UPC), generated by the Farmer, goes on the package, can be verified by the Consumer\n    address ownerID;  // Metamask-Ethereum address of the current owner as the product moves through 8 stages\n    address originFarmerID; // Metamask-Ethereum address of the Farmer\n    string  originFarmName; // Farmer Name\n    string  originFarmInformation;  // Farmer Information\n    string  originFarmLatitude; // Farm Latitude\n    string  originFarmLongitude;  // Farm Longitude\n    uint    productID;  // Product ID potentially a combination of upc + sku\n    string  productNotes; // Product Notes\n    uint    productPrice; // Product Price\n    State   itemState;  // Product State as represented in the enum above\n    address distributorID;  // Metamask-Ethereum address of the Distributor\n    address retailerID; // Metamask-Ethereum address of the Retailer\n    address consumerID; // Metamask-Ethereum address of the Consumer\n  }\n\n  // Define a modifier that checks if the paid amount is sufficient to cover the price\n  modifier ensurePurchaserPaidEnough(uint _price) {\n    require(msg.value >= _price); \n    _;\n  }\n  \n  // Define a modifier that checks the price and refunds the remaining balance\n  // TRW: I refactored this to self-document because 'checkValue' carries little meaning\n  modifier checkForRefund(uint _upc) {\n    _;\n    uint _price = itemsByUPC[_upc].productPrice;\n    uint amountToReturn = msg.value - _price;\n    address consumer = msg.sender;\n    payable(consumer).transfer(amountToReturn);\n    emit TomW_ADDED_RefundSent(consumer);\n  }\n\n  // Define a modifier that checks if an item.state of a upc is Harvested\n  modifier stateIsHarvested(uint _upc) {\n    require(itemsByUPC[_upc].itemState == State.Harvested);\n    _;\n  }\n\n  // Define a modifier that checks if an item.state of a upc is Processed\n  // DONE\n  modifier stateIsProcessed(uint _upc) {\n    require(itemsByUPC[_upc].itemState == State.Processed);\n    _;\n  }\n  \n  // Define a modifier that checks if an item.state of a upc is Packed\n  // DONE\n  modifier stateIsPacked(uint _upc) {\n    require(itemsByUPC[_upc].itemState == State.Packed);\n    _;\n  }\n\n  // Define a modifier that checks if an item.state of a upc is ForSale\n  // DONE\n  modifier stateIsForSale(uint _upc) {\n    require(itemsByUPC[_upc].itemState == State.ForSale);\n    _;\n  }\n\n  // Define a modifier that checks if an item.state of a upc is Sold\n  // DONE\n  modifier stateIsSold(uint _upc) {\n    require(itemsByUPC[_upc].itemState == State.Sold);\n    _;\n  }\n  \n  // Define a modifier that checks if an item.state of a upc is Shipped\n  // DONE\n  modifier stateIsShipped(uint _upc) {\n    require(itemsByUPC[_upc].itemState == State.Shipped);\n    _;\n  }\n\n  // Define a modifier that checks if an item.state of a upc is Received\n  // DONE\n  modifier stateIsReceived(uint _upc) {\n    require(itemsByUPC[_upc].itemState == State.Received);\n    _;\n  }\n\n  // Define a modifier that checks if an item.state of a upc is Purchased\n  // DONE\n  modifier stateIsPurchased(uint _upc) {\n    require(itemsByUPC[_upc].itemState == State.Purchased);\n    _;\n  }\n\n  // In the constructor set 'owner' to the address that instantiated the contract\n  // and set 'sku' to 1\n  // and set 'upc' to 1\n  constructor() payable {\n    sku = 1;\n    upc = 1;\n  }\n\n  // Define a function 'kill' if required\n  function kill() public {\n    if (msg.sender == owner()) {\n      selfdestruct(payable(owner()));\n    }\n  }\n\n\n  function getUPCs() public view returns (string[] memory){\n\n\n  }\n  // Define a function 'harvestItem' that allows a farmer to mark an item 'Harvested'\n  function harvestItem(uint           _upc,\n                        address       _originFarmerID,\n                        string memory _originFarmName,\n                        string memory _originFarmInformation,\n                        string memory _originFarmLatitude,\n                        string memory _originFarmLongitude,\n                        string memory _productNotes,\n                        uint _productID\n                        ) public\n  {\n    // Add the new item as part of Harvest\n    itemsByUPC[_upc].upc = _upc;\n    itemsByUPC[_upc].sku = sku;\n\n    // having product ID = adding two numbers together is stupid\n    // I'm going to have it equal my Product ID\n    // because I don't want to\n    // waste more time with amateur hour side-effect assumptions\n    // by the original developer who tested on a short running system\n    itemsByUPC[_upc].productID = _productID;\n\n    itemsByUPC[_upc].ownerID = _originFarmerID;\n    itemsByUPC[_upc].originFarmerID = _originFarmerID;\n    itemsByUPC[_upc].originFarmName = _originFarmName;\n    itemsByUPC[_upc].originFarmInformation = _originFarmInformation;\n    itemsByUPC[_upc].originFarmLatitude = _originFarmLatitude;\n    itemsByUPC[_upc].originFarmLongitude = _originFarmLongitude;\n    itemsByUPC[_upc].productNotes = _productNotes;\n    itemsByUPC[_upc].itemState = State.Harvested;\n\n\n    sku = sku + 1;\n\n    // Emit the appropriate event\n    emit ItemHarvested(itemsByUPC[_upc].upc);\n  }\n\n  function processItem(uint _upc) public\n    // Call modifier to check if upc has passed previous supply chain stage\n    stateIsHarvested(_upc)\n    // Call modifier to verify caller of this function\n    onlyFarmer()\n  {\n    // Update the appropriate fields\n    itemsByUPC[_upc].itemState = State.Processed;\n\n    // Emit the appropriate event\n    emit ItemProcessed(_upc);\n  }\n\n\n  // Define a function 'packItem' that allows a farmer to mark an item 'Packed'\n  // DONE\n  function packItem(uint _upc) public \n  // Call modifier to check if upc has passed previous supply chain stage\n  stateIsProcessed(_upc)\n  // Call modifier to verify caller of this function\n  onlyFarmer()\n  {\n    // Update the appropriate fields\n    itemsByUPC[_upc].itemState = State.Packed;\n    // Emit the appropriate event\n    emit ItemPacked(_upc);\n  }\n\n  // Define a function 'sellItem' that allows a farmer to mark an item 'ForSale'\n  function sellItem(uint _upc, uint _price) public \n  // Call modifier to check if upc has passed previous supply chain stage\n  stateIsPacked(_upc)\n  // Call modifier to verify caller of this function\n  onlyFarmer()\n  {\n    // Update the appropriate fields\n    itemsByUPC[_upc].itemState = State.ForSale;\n    itemsByUPC[_upc].productPrice = _price;\n    // Emit the appropriate event\n  emit ItemForSale(_upc);\n    \n  }\n\n  // Define a function 'buyItem' that allows the disributor to mark an item 'Sold'\n  // Use the above defined modifiers to check if the item is available for sale,\n  // if the buyer has paid enough,\n  // and any excess ether sent is refunded back to the buyer\n  // DONE\n  function buyItem(uint _upc) public payable \n    // Call modifier to check if upc has passed previous supply chain stage\n    stateIsForSale(_upc)\n    // Call modifer to check if buyer has paid enough\n    ensurePurchaserPaidEnough(_upc)\n    // Call modifer to send any excess ether back to buyer\n    checkForRefund(_upc)\n    {\n      // Update the appropriate fields - ownerID, distributorID, itemState\n     address farmersAddress = itemsByUPC[_upc].ownerID;\n\n        // I'm unsure difference between ownerID and distributorID\n      // i've decide ownerID is the current owner\n      itemsByUPC[_upc].ownerID = msg.sender;\n      itemsByUPC[_upc].distributorID = msg.sender;\n      itemsByUPC[_upc].itemState = State.Sold;\n      // Transfer money to farmer\n      payable(farmersAddress).transfer(itemsByUPC[_upc].productPrice);\n      // emit the appropriate event\n\n      emit ItemSold(_upc);\n      emit TomW_ADDED_PaymentSent(farmersAddress);\n  }\n\n  // Define a function 'shipItem' that allows the distributor to mark an item 'Shipped'\n  // Use the above modifers to check if the item is sold\n  // DONE\n  // Strange, shipped, but to whom???\n  function shipItem(uint _upc) public \n    // Call modifier to check if upc has passed previous supply chain stage\n    stateIsSold(_upc)\n    // Call modifier to verify caller of this function\n    onlyDistributor()\n    {\n    // Update the appropriate fields\n    itemsByUPC[_upc].itemState = State.Shipped;\n    // Emit the appropriate event\n    emit ItemShipped(_upc);\n  }\n\n  // Define a function 'receiveItem' that allows the retailer to mark an item 'Received'\n  // Use the above modifiers to check if the item is shipped\n  function receiveItem(uint _upc) public \n    // Call modifier to check if upc has passed previous supply chain stage\n    stateIsShipped(_upc)\n    // Access Control List enforced by calling Smart Contract / DApp\n    onlyRetailer()\n    {\n    // Update the appropriate fields - ownerID, retailerID, itemState\n    itemsByUPC[_upc].ownerID = msg.sender;\n      itemsByUPC[_upc].retailerID = msg.sender;\n      itemsByUPC[_upc].itemState = State.Received;\n    // Emit the appropriate event\n      emit ItemReceived(_upc);\n    \n  }\n\n  // Define a function 'purchaseItem' that allows the consumer to mark an item 'Purchased'\n  // Use the above modifiers to check if the item is received\n  function purchaseItem(uint _upc) public \n    // Call modifier to check if upc has passed previous supply chain stage\n    stateIsReceived(_upc)\n    // Access Control List enforced by calling Smart Contract / DApp\n    onlyConsumer()\n    {\n    // Update the appropriate fields - ownerID, consumerID, itemState\n      itemsByUPC[_upc].ownerID = msg.sender;\n      itemsByUPC[_upc].consumerID = msg.sender;\n      itemsByUPC[_upc].itemState = State.Purchased;\n      // Emit the appropriate event\n      emit ItemPurchased(_upc);\n    }\n\n  // Define a function 'fetchItemBufferOne' that fetches the data\n  function fetchItemBufferOne(uint _upc) public view returns\n  (\n    uint    itemSKU,\n    uint    itemUPC,\n    address ownerID,\n    address originFarmerID,\n    string  memory originFarmName,\n    string  memory originFarmInformation,\n    string  memory originFarmLatitude,\n    string  memory originFarmLongitude)\n  {\n    Item memory item = itemsByUPC[_upc];\n    return (\n      item.sku,\n      item.upc,\n      item.ownerID,\n      item.originFarmerID,\n      item.originFarmName,\n      item.originFarmInformation,\n      item.originFarmLatitude,\n      item.originFarmLongitude\n    );\n  }\n\n\n  // Define a function 'fetchItemBufferTwo' that fetches the data\n  function fetchItemBufferTwo(uint _upc) public view returns\n  (\n    uint    itemSKU,\n    uint    itemUPC,\n    uint    productID,\n    string  memory productNotes,\n    uint    productPrice,\n    uint    itemState,\n    address distributorID,\n    address retailerID,\n    address consumerID\n  )\n  {\n    Item memory item = itemsByUPC[_upc];\n    return (\n        item.sku,\n        item.upc,\n        item.productID,\n        item.productNotes,\n        item.productPrice,\n        uint256(item.itemState),\n        item.distributorID,\n        item.retailerID,\n        item.consumerID\n\n    );\n  }\n\n}\n",
  "sourcePath": "/Users/thomaswhitehill/IdeaProjects/SupplyChain/project-6/contracts/coffeebase/SupplyChain.sol",
  "compiler": {
    "name": "solc",
    "version": "0.8.11+commit.d7f03943.Emscripten.clang"
  },
  "schemaVersion": "3.4.4",
  "updatedAt": "2022-02-01T16:27:06.957Z",
  "devdoc": {
    "kind": "dev",
    "methods": {},
    "version": 1
  },
  "userdoc": {
    "kind": "user",
    "methods": {
      "isOwner()": {
        "notice": "Check if the calling address is the owner of the contract"
      },
      "owner()": {
        "notice": "Look up the address of the owner"
      },
      "renounceOwnership()": {
        "notice": "Define a function to renounce ownerhip"
      },
      "transferOwnership(address)": {
        "notice": "Define a public function to transfer ownership"
      }
    },
    "version": 1
  }
}